{
  "address": "0x5FbDB2315678afecb367f032d93F642f64180aa3",
  "abi": [
    {
      "inputs": [],
      "stateMutability": "nonpayable",
      "type": "constructor"
    },
    {
      "inputs": [
        {
          "internalType": "address",
          "name": "sender",
          "type": "address"
        },
        {
          "internalType": "uint256",
          "name": "tokenId",
          "type": "uint256"
        },
        {
          "internalType": "address",
          "name": "owner",
          "type": "address"
        }
      ],
      "name": "ERC721IncorrectOwner",
      "type": "error"
    },
    {
      "inputs": [
        {
          "internalType": "address",
          "name": "operator",
          "type": "address"
        },
        {
          "internalType": "uint256",
          "name": "tokenId",
          "type": "uint256"
        }
      ],
      "name": "ERC721InsufficientApproval",
      "type": "error"
    },
    {
      "inputs": [
        {
          "internalType": "address",
          "name": "approver",
          "type": "address"
        }
      ],
      "name": "ERC721InvalidApprover",
      "type": "error"
    },
    {
      "inputs": [
        {
          "internalType": "address",
          "name": "operator",
          "type": "address"
        }
      ],
      "name": "ERC721InvalidOperator",
      "type": "error"
    },
    {
      "inputs": [
        {
          "internalType": "address",
          "name": "owner",
          "type": "address"
        }
      ],
      "name": "ERC721InvalidOwner",
      "type": "error"
    },
    {
      "inputs": [
        {
          "internalType": "address",
          "name": "receiver",
          "type": "address"
        }
      ],
      "name": "ERC721InvalidReceiver",
      "type": "error"
    },
    {
      "inputs": [
        {
          "internalType": "address",
          "name": "sender",
          "type": "address"
        }
      ],
      "name": "ERC721InvalidSender",
      "type": "error"
    },
    {
      "inputs": [
        {
          "internalType": "uint256",
          "name": "tokenId",
          "type": "uint256"
        }
      ],
      "name": "ERC721NonexistentToken",
      "type": "error"
    },
    {
      "inputs": [],
      "name": "NFTMarket__AlreadyListed",
      "type": "error"
    },
    {
      "inputs": [],
      "name": "NFTMarket__InvalidPrice",
      "type": "error"
    },
    {
      "inputs": [],
      "name": "NFTMarket__NoProceeds",
      "type": "error"
    },
    {
      "inputs": [],
      "name": "NFTMarket__NotApproved",
      "type": "error"
    },
    {
      "inputs": [],
      "name": "NFTMarket__NotListed",
      "type": "error"
    },
    {
      "inputs": [],
      "name": "NFTMarket__NotOwner",
      "type": "error"
    },
    {
      "inputs": [],
      "name": "NFTMarket__PriceNotMet",
      "type": "error"
    },
    {
      "inputs": [],
      "name": "NFTMarket__TransferFailed",
      "type": "error"
    },
    {
      "inputs": [],
      "name": "ReentrancyGuardReentrantCall",
      "type": "error"
    },
    {
      "anonymous": false,
      "inputs": [
        {
          "indexed": true,
          "internalType": "address",
          "name": "owner",
          "type": "address"
        },
        {
          "indexed": true,
          "internalType": "address",
          "name": "approved",
          "type": "address"
        },
        {
          "indexed": true,
          "internalType": "uint256",
          "name": "tokenId",
          "type": "uint256"
        }
      ],
      "name": "Approval",
      "type": "event"
    },
    {
      "anonymous": false,
      "inputs": [
        {
          "indexed": true,
          "internalType": "address",
          "name": "owner",
          "type": "address"
        },
        {
          "indexed": true,
          "internalType": "address",
          "name": "operator",
          "type": "address"
        },
        {
          "indexed": false,
          "internalType": "bool",
          "name": "approved",
          "type": "bool"
        }
      ],
      "name": "ApprovalForAll",
      "type": "event"
    },
    {
      "anonymous": false,
      "inputs": [
        {
          "indexed": false,
          "internalType": "uint256",
          "name": "_fromTokenId",
          "type": "uint256"
        },
        {
          "indexed": false,
          "internalType": "uint256",
          "name": "_toTokenId",
          "type": "uint256"
        }
      ],
      "name": "BatchMetadataUpdate",
      "type": "event"
    },
    {
      "anonymous": false,
      "inputs": [
        {
          "indexed": false,
          "internalType": "uint256",
          "name": "_tokenId",
          "type": "uint256"
        }
      ],
      "name": "MetadataUpdate",
      "type": "event"
    },
    {
      "anonymous": false,
      "inputs": [
        {
          "indexed": true,
          "internalType": "address",
          "name": "from",
          "type": "address"
        },
        {
          "indexed": true,
          "internalType": "address",
          "name": "to",
          "type": "address"
        },
        {
          "indexed": true,
          "internalType": "uint256",
          "name": "tokenId",
          "type": "uint256"
        }
      ],
      "name": "Transfer",
      "type": "event"
    },
    {
      "anonymous": false,
      "inputs": [
        {
          "indexed": false,
          "internalType": "address",
          "name": "buyer",
          "type": "address"
        },
        {
          "indexed": false,
          "internalType": "address",
          "name": "nftAddress",
          "type": "address"
        },
        {
          "indexed": false,
          "internalType": "uint256",
          "name": "tokenId",
          "type": "uint256"
        },
        {
          "indexed": false,
          "internalType": "uint256",
          "name": "price",
          "type": "uint256"
        }
      ],
      "name": "nftBought",
      "type": "event"
    },
    {
      "anonymous": false,
      "inputs": [
        {
          "indexed": false,
          "internalType": "address",
          "name": "seller",
          "type": "address"
        },
        {
          "indexed": false,
          "internalType": "address",
          "name": "nftAddress",
          "type": "address"
        },
        {
          "indexed": false,
          "internalType": "uint256",
          "name": "tokenId",
          "type": "uint256"
        }
      ],
      "name": "nftCancelled",
      "type": "event"
    },
    {
      "anonymous": false,
      "inputs": [
        {
          "indexed": false,
          "internalType": "address",
          "name": "to",
          "type": "address"
        },
        {
          "indexed": false,
          "internalType": "uint256",
          "name": "tokenId",
          "type": "uint256"
        },
        {
          "indexed": false,
          "internalType": "string",
          "name": "tokenURI",
          "type": "string"
        }
      ],
      "name": "nftCreated",
      "type": "event"
    },
    {
      "anonymous": false,
      "inputs": [
        {
          "indexed": false,
          "internalType": "address",
          "name": "seller",
          "type": "address"
        },
        {
          "indexed": false,
          "internalType": "address",
          "name": "nftAddress",
          "type": "address"
        },
        {
          "indexed": false,
          "internalType": "uint256",
          "name": "tokenId",
          "type": "uint256"
        },
        {
          "indexed": false,
          "internalType": "uint256",
          "name": "price",
          "type": "uint256"
        }
      ],
      "name": "nftListed",
      "type": "event"
    },
    {
      "inputs": [
        {
          "internalType": "address",
          "name": "to",
          "type": "address"
        },
        {
          "internalType": "uint256",
          "name": "tokenId",
          "type": "uint256"
        }
      ],
      "name": "approve",
      "outputs": [],
      "stateMutability": "nonpayable",
      "type": "function"
    },
    {
      "inputs": [
        {
          "internalType": "address",
          "name": "owner",
          "type": "address"
        }
      ],
      "name": "balanceOf",
      "outputs": [
        {
          "internalType": "uint256",
          "name": "",
          "type": "uint256"
        }
      ],
      "stateMutability": "view",
      "type": "function"
    },
    {
      "inputs": [
        {
          "internalType": "address",
          "name": "nftAddress",
          "type": "address"
        },
        {
          "internalType": "uint256",
          "name": "tokenId",
          "type": "uint256"
        }
      ],
      "name": "buyNft",
      "outputs": [],
      "stateMutability": "payable",
      "type": "function"
    },
    {
      "inputs": [
        {
          "internalType": "address",
          "name": "nftAddress",
          "type": "address"
        },
        {
          "internalType": "uint256",
          "name": "tokenId",
          "type": "uint256"
        }
      ],
      "name": "cancelListing",
      "outputs": [],
      "stateMutability": "nonpayable",
      "type": "function"
    },
    {
      "inputs": [
        {
          "internalType": "string",
          "name": "tokenURI",
          "type": "string"
        }
      ],
      "name": "createNFT",
      "outputs": [],
      "stateMutability": "nonpayable",
      "type": "function"
    },
    {
      "inputs": [
        {
          "internalType": "uint256",
          "name": "tokenId",
          "type": "uint256"
        }
      ],
      "name": "getApproved",
      "outputs": [
        {
          "internalType": "address",
          "name": "",
          "type": "address"
        }
      ],
      "stateMutability": "view",
      "type": "function"
    },
    {
      "inputs": [
        {
          "internalType": "address",
          "name": "nftAddress",
          "type": "address"
        },
        {
          "internalType": "uint256",
          "name": "tokenId",
          "type": "uint256"
        }
      ],
      "name": "getListing",
      "outputs": [
        {
          "components": [
            {
              "internalType": "address",
              "name": "seller",
              "type": "address"
            },
            {
              "internalType": "uint256",
              "name": "price",
              "type": "uint256"
            }
          ],
          "internalType": "struct NFTMarket.Listing",
          "name": "",
          "type": "tuple"
        }
      ],
      "stateMutability": "view",
      "type": "function"
    },
    {
      "inputs": [
        {
          "internalType": "address",
          "name": "seller",
          "type": "address"
        }
      ],
      "name": "getProceeds",
      "outputs": [
        {
          "internalType": "uint256",
          "name": "",
          "type": "uint256"
        }
      ],
      "stateMutability": "view",
      "type": "function"
    },
    {
      "inputs": [],
      "name": "getTokenId",
      "outputs": [
        {
          "internalType": "uint256",
          "name": "",
          "type": "uint256"
        }
      ],
      "stateMutability": "view",
      "type": "function"
    },
    {
      "inputs": [
        {
          "internalType": "address",
          "name": "owner",
          "type": "address"
        },
        {
          "internalType": "address",
          "name": "operator",
          "type": "address"
        }
      ],
      "name": "isApprovedForAll",
      "outputs": [
        {
          "internalType": "bool",
          "name": "",
          "type": "bool"
        }
      ],
      "stateMutability": "view",
      "type": "function"
    },
    {
      "inputs": [
        {
          "internalType": "address",
          "name": "nftAddress",
          "type": "address"
        },
        {
          "internalType": "uint256",
          "name": "tokenId",
          "type": "uint256"
        },
        {
          "internalType": "uint256",
          "name": "price",
          "type": "uint256"
        }
      ],
      "name": "listNft",
      "outputs": [],
      "stateMutability": "nonpayable",
      "type": "function"
    },
    {
      "inputs": [],
      "name": "name",
      "outputs": [
        {
          "internalType": "string",
          "name": "",
          "type": "string"
        }
      ],
      "stateMutability": "view",
      "type": "function"
    },
    {
      "inputs": [
        {
          "internalType": "uint256",
          "name": "tokenId",
          "type": "uint256"
        }
      ],
      "name": "ownerOf",
      "outputs": [
        {
          "internalType": "address",
          "name": "",
          "type": "address"
        }
      ],
      "stateMutability": "view",
      "type": "function"
    },
    {
      "inputs": [
        {
          "internalType": "address",
          "name": "from",
          "type": "address"
        },
        {
          "internalType": "address",
          "name": "to",
          "type": "address"
        },
        {
          "internalType": "uint256",
          "name": "tokenId",
          "type": "uint256"
        }
      ],
      "name": "safeTransferFrom",
      "outputs": [],
      "stateMutability": "nonpayable",
      "type": "function"
    },
    {
      "inputs": [
        {
          "internalType": "address",
          "name": "from",
          "type": "address"
        },
        {
          "internalType": "address",
          "name": "to",
          "type": "address"
        },
        {
          "internalType": "uint256",
          "name": "tokenId",
          "type": "uint256"
        },
        {
          "internalType": "bytes",
          "name": "data",
          "type": "bytes"
        }
      ],
      "name": "safeTransferFrom",
      "outputs": [],
      "stateMutability": "nonpayable",
      "type": "function"
    },
    {
      "inputs": [
        {
          "internalType": "address",
          "name": "operator",
          "type": "address"
        },
        {
          "internalType": "bool",
          "name": "approved",
          "type": "bool"
        }
      ],
      "name": "setApprovalForAll",
      "outputs": [],
      "stateMutability": "nonpayable",
      "type": "function"
    },
    {
      "inputs": [
        {
          "internalType": "bytes4",
          "name": "interfaceId",
          "type": "bytes4"
        }
      ],
      "name": "supportsInterface",
      "outputs": [
        {
          "internalType": "bool",
          "name": "",
          "type": "bool"
        }
      ],
      "stateMutability": "view",
      "type": "function"
    },
    {
      "inputs": [],
      "name": "symbol",
      "outputs": [
        {
          "internalType": "string",
          "name": "",
          "type": "string"
        }
      ],
      "stateMutability": "view",
      "type": "function"
    },
    {
      "inputs": [
        {
          "internalType": "uint256",
          "name": "tokenId",
          "type": "uint256"
        }
      ],
      "name": "tokenURI",
      "outputs": [
        {
          "internalType": "string",
          "name": "",
          "type": "string"
        }
      ],
      "stateMutability": "view",
      "type": "function"
    },
    {
      "inputs": [
        {
          "internalType": "address",
          "name": "from",
          "type": "address"
        },
        {
          "internalType": "address",
          "name": "to",
          "type": "address"
        },
        {
          "internalType": "uint256",
          "name": "tokenId",
          "type": "uint256"
        }
      ],
      "name": "transferFrom",
      "outputs": [],
      "stateMutability": "nonpayable",
      "type": "function"
    },
    {
      "inputs": [
        {
          "internalType": "address",
          "name": "nftAddress",
          "type": "address"
        },
        {
          "internalType": "uint256",
          "name": "tokenId",
          "type": "uint256"
        },
        {
          "internalType": "uint256",
          "name": "newPrice",
          "type": "uint256"
        }
      ],
      "name": "updateListing",
      "outputs": [],
      "stateMutability": "nonpayable",
      "type": "function"
    },
    {
      "inputs": [],
      "name": "withdrawProceeds",
      "outputs": [],
      "stateMutability": "nonpayable",
      "type": "function"
    }
  ],
  "transactionHash": "0x70e6c5e98fca7be1cb996b64edc32c16d0065a7c2aef01bd063a3aef5763d275",
  "args": [],
  "numDeployments": 1,
  "solcInputHash": "b952a0b88b0691428eb38c9a63bc68a2",
  "bytecode": "0x60806040523480156200001157600080fd5b506040518060400160405280600981526020017f4e66744d61726b657400000000000000000000000000000000000000000000008152506040518060400160405280600481526020017f4e46544d0000000000000000000000000000000000000000000000000000000081525081600090816200008f919062000334565b508060019081620000a1919062000334565b505050600160078190555060006008819055506200041b565b600081519050919050565b7f4e487b7100000000000000000000000000000000000000000000000000000000600052604160045260246000fd5b7f4e487b7100000000000000000000000000000000000000000000000000000000600052602260045260246000fd5b600060028204905060018216806200013c57607f821691505b602082108103620001525762000151620000f4565b5b50919050565b60008190508160005260206000209050919050565b60006020601f8301049050919050565b600082821b905092915050565b600060088302620001bc7fffffffffffffffffffffffffffffffffffffffffffffffffffffffffffffffff826200017d565b620001c886836200017d565b95508019841693508086168417925050509392505050565b6000819050919050565b6000819050919050565b6000620002156200020f6200020984620001e0565b620001ea565b620001e0565b9050919050565b6000819050919050565b6200023183620001f4565b6200024962000240826200021c565b8484546200018a565b825550505050565b600090565b6200026062000251565b6200026d81848462000226565b505050565b5b8181101562000295576200028960008262000256565b60018101905062000273565b5050565b601f821115620002e457620002ae8162000158565b620002b9846200016d565b81016020851015620002c9578190505b620002e1620002d8856200016d565b83018262000272565b50505b505050565b600082821c905092915050565b60006200030960001984600802620002e9565b1980831691505092915050565b6000620003248383620002f6565b9150826002028217905092915050565b6200033f82620000ba565b67ffffffffffffffff8111156200035b576200035a620000c5565b5b62000367825462000123565b6200037482828562000299565b600060209050601f831160018114620003ac576000841562000397578287015190505b620003a3858262000316565b86555062000413565b601f198416620003bc8662000158565b60005b82811015620003e657848901518255600182019150602085019450602081019050620003bf565b8683101562000406578489015162000402601f891682620002f6565b8355505b6001600288020188555050505b505050505050565b613745806200042b6000396000f3fe6080604052600436106101355760003560e01c806388700d1c116100ab578063b88d4fde1161006f578063b88d4fde14610429578063c87b56dd14610452578063c922b17c1461048f578063da2ed03e146104b8578063e985e9c5146104e1578063f772adf11461051e57610135565b806388700d1c146103585780639038e6931461039557806395d89b41146103ac578063a22cb465146103d7578063b2ddee061461040057610135565b806323b872dd116100fd57806323b872dd1461023357806330cfeda91461025c57806342842e0e146102995780634ddf4f8f146102c25780636352211e146102de57806370a082311461031b57610135565b8063010a38f51461013a57806301ffc9a71461016557806306fdde03146101a2578063081812fc146101cd578063095ea7b31461020a575b600080fd5b34801561014657600080fd5b5061014f610547565b60405161015c919061293a565b60405180910390f35b34801561017157600080fd5b5061018c600480360381019061018791906129c1565b610551565b6040516101999190612a09565b60405180910390f35b3480156101ae57600080fd5b506101b76105b2565b6040516101c49190612ab4565b60405180910390f35b3480156101d957600080fd5b506101f460048036038101906101ef9190612b02565b610644565b6040516102019190612b70565b60405180910390f35b34801561021657600080fd5b50610231600480360381019061022c9190612bb7565b610660565b005b34801561023f57600080fd5b5061025a60048036038101906102559190612bf7565b610676565b005b34801561026857600080fd5b50610283600480360381019061027e9190612c4a565b610778565b604051610290919061293a565b60405180910390f35b3480156102a557600080fd5b506102c060048036038101906102bb9190612bf7565b6107c1565b005b6102dc60048036038101906102d79190612bb7565b6107e1565b005b3480156102ea57600080fd5b5061030560048036038101906103009190612b02565b610b14565b6040516103129190612b70565b60405180910390f35b34801561032757600080fd5b50610342600480360381019061033d9190612c4a565b610b26565b60405161034f919061293a565b60405180910390f35b34801561036457600080fd5b5061037f600480360381019061037a9190612bb7565b610be0565b60405161038c9190612cc4565b60405180910390f35b3480156103a157600080fd5b506103aa610cab565b005b3480156103b857600080fd5b506103c1610e15565b6040516103ce9190612ab4565b60405180910390f35b3480156103e357600080fd5b506103fe60048036038101906103f99190612d0b565b610ea7565b005b34801561040c57600080fd5b5061042760048036038101906104229190612bb7565b610ebd565b005b34801561043557600080fd5b50610450600480360381019061044b9190612e80565b6110ff565b005b34801561045e57600080fd5b5061047960048036038101906104749190612b02565b61111c565b6040516104869190612ab4565b60405180910390f35b34801561049b57600080fd5b506104b660048036038101906104b19190612f03565b61122f565b005b3480156104c457600080fd5b506104df60048036038101906104da9190612fb6565b6115df565b005b3480156104ed57600080fd5b5061050860048036038101906105039190613003565b611696565b6040516105159190612a09565b60405180910390f35b34801561052a57600080fd5b5061054560048036038101906105409190612f03565b61172a565b005b6000600854905090565b6000634906490660e01b7bffffffffffffffffffffffffffffffffffffffffffffffffffffffff1916827bffffffffffffffffffffffffffffffffffffffffffffffffffffffff191614806105ab57506105aa8261197f565b5b9050919050565b6060600080546105c190613072565b80601f01602080910402602001604051908101604052809291908181526020018280546105ed90613072565b801561063a5780601f1061060f5761010080835404028352916020019161063a565b820191906000526020600020905b81548152906001019060200180831161061d57829003601f168201915b5050505050905090565b600061064f82611a61565b5061065982611ae9565b9050919050565b610672828261066d611b26565b611b2e565b5050565b600073ffffffffffffffffffffffffffffffffffffffff168273ffffffffffffffffffffffffffffffffffffffff16036106e85760006040517f64a0ae920000000000000000000000000000000000000000000000000000000081526004016106df9190612b70565b60405180910390fd5b60006106fc83836106f7611b26565b611b40565b90508373ffffffffffffffffffffffffffffffffffffffff168173ffffffffffffffffffffffffffffffffffffffff1614610772578382826040517f64283d7b000000000000000000000000000000000000000000000000000000008152600401610769939291906130a3565b60405180910390fd5b50505050565b6000600a60008373ffffffffffffffffffffffffffffffffffffffff1673ffffffffffffffffffffffffffffffffffffffff168152602001908152602001600020549050919050565b6107dc838383604051806020016040528060008152506110ff565b505050565b6107e9611d5a565b81816000600960008473ffffffffffffffffffffffffffffffffffffffff1673ffffffffffffffffffffffffffffffffffffffff16815260200190815260200160002060008381526020019081526020016000206001015403610878576040517f0a89e96c00000000000000000000000000000000000000000000000000000000815260040160405180910390fd5b6000600960008673ffffffffffffffffffffffffffffffffffffffff1673ffffffffffffffffffffffffffffffffffffffff16815260200190815260200160002060008581526020019081526020016000206040518060400160405290816000820160009054906101000a900473ffffffffffffffffffffffffffffffffffffffff1673ffffffffffffffffffffffffffffffffffffffff1673ffffffffffffffffffffffffffffffffffffffff16815260200160018201548152505090508060200151341015610975576040517f155b6fe800000000000000000000000000000000000000000000000000000000815260040160405180910390fd5b34600a6000836000015173ffffffffffffffffffffffffffffffffffffffff1673ffffffffffffffffffffffffffffffffffffffff16815260200190815260200160002060008282546109c89190613109565b92505081905550600960008673ffffffffffffffffffffffffffffffffffffffff1673ffffffffffffffffffffffffffffffffffffffff1681526020019081526020016000206000858152602001908152602001600020600080820160006101000a81549073ffffffffffffffffffffffffffffffffffffffff0219169055600182016000905550508473ffffffffffffffffffffffffffffffffffffffff166342842e0e826000015133876040518463ffffffff1660e01b8152600401610a929392919061313d565b600060405180830381600087803b158015610aac57600080fd5b505af1158015610ac0573d6000803e3d6000fd5b505050507fc5b3b80750ab8e83675340475f495e9c945b53d3ac992735f8361f1d630833563386868460200151604051610afd9493929190613174565b60405180910390a1505050610b10611da0565b5050565b6000610b1f82611a61565b9050919050565b60008073ffffffffffffffffffffffffffffffffffffffff168273ffffffffffffffffffffffffffffffffffffffff1603610b995760006040517f89c62b64000000000000000000000000000000000000000000000000000000008152600401610b909190612b70565b60405180910390fd5b600360008373ffffffffffffffffffffffffffffffffffffffff1673ffffffffffffffffffffffffffffffffffffffff168152602001908152602001600020549050919050565b610be86128f1565b600960008473ffffffffffffffffffffffffffffffffffffffff1673ffffffffffffffffffffffffffffffffffffffff16815260200190815260200160002060008381526020019081526020016000206040518060400160405290816000820160009054906101000a900473ffffffffffffffffffffffffffffffffffffffff1673ffffffffffffffffffffffffffffffffffffffff1673ffffffffffffffffffffffffffffffffffffffff168152602001600182015481525050905092915050565b6000600a60003373ffffffffffffffffffffffffffffffffffffffff1673ffffffffffffffffffffffffffffffffffffffff16815260200190815260200160002054905060008103610d29576040517f332616af00000000000000000000000000000000000000000000000000000000815260040160405180910390fd5b6000600a60003373ffffffffffffffffffffffffffffffffffffffff1673ffffffffffffffffffffffffffffffffffffffff1681526020019081526020016000208190555060003373ffffffffffffffffffffffffffffffffffffffff1682604051610d94906131ea565b60006040518083038185875af1925050503d8060008114610dd1576040519150601f19603f3d011682016040523d82523d6000602084013e610dd6565b606091505b5050905080610e11576040517f42c40fa400000000000000000000000000000000000000000000000000000000815260040160405180910390fd5b5050565b606060018054610e2490613072565b80601f0160208091040260200160405190810160405280929190818152602001828054610e5090613072565b8015610e9d5780601f10610e7257610100808354040283529160200191610e9d565b820191906000526020600020905b815481529060010190602001808311610e8057829003601f168201915b5050505050905090565b610eb9610eb2611b26565b8383611daa565b5050565b818133600083905060008173ffffffffffffffffffffffffffffffffffffffff16636352211e856040518263ffffffff1660e01b8152600401610f00919061293a565b602060405180830381865afa158015610f1d573d6000803e3d6000fd5b505050506040513d601f19601f82011682018060405250810190610f419190613214565b90508273ffffffffffffffffffffffffffffffffffffffff168173ffffffffffffffffffffffffffffffffffffffff1614610fa8576040517f7cf2c72b00000000000000000000000000000000000000000000000000000000815260040160405180910390fd5b86866000600960008473ffffffffffffffffffffffffffffffffffffffff1673ffffffffffffffffffffffffffffffffffffffff16815260200190815260200160002060008381526020019081526020016000206001015403611037576040517f0a89e96c00000000000000000000000000000000000000000000000000000000815260040160405180910390fd5b600960008a73ffffffffffffffffffffffffffffffffffffffff1673ffffffffffffffffffffffffffffffffffffffff1681526020019081526020016000206000898152602001908152602001600020600080820160006101000a81549073ffffffffffffffffffffffffffffffffffffffff0219169055600182016000905550507f42276601a43b0d52a25a0acd767d79c39b44173a9710a2aa41fa94ed6c443dd0338a8a6040516110ec9392919061313d565b60405180910390a1505050505050505050565b61110a848484610676565b61111684848484611f19565b50505050565b606061112782611a61565b50600060066000848152602001908152602001600020805461114890613072565b80601f016020809104026020016040519081016040528092919081815260200182805461117490613072565b80156111c15780601f10611196576101008083540402835291602001916111c1565b820191906000526020600020905b8154815290600101906020018083116111a457829003601f168201915b5050505050905060006111d26120d0565b905060008151036111e757819250505061122a565b60008251111561121c57808260405160200161120492919061327d565b6040516020818303038152906040529250505061122a565b611225846120e7565b925050505b919050565b828233600083905060008173ffffffffffffffffffffffffffffffffffffffff16636352211e856040518263ffffffff1660e01b8152600401611272919061293a565b602060405180830381865afa15801561128f573d6000803e3d6000fd5b505050506040513d601f19601f820116820180604052508101906112b39190613214565b90508273ffffffffffffffffffffffffffffffffffffffff168173ffffffffffffffffffffffffffffffffffffffff161461131a576040517f7cf2c72b00000000000000000000000000000000000000000000000000000000815260040160405180910390fd5b87876000600960008473ffffffffffffffffffffffffffffffffffffffff1673ffffffffffffffffffffffffffffffffffffffff168152602001908152602001600020600083815260200190815260200160002060010154146113a9576040517f9168126700000000000000000000000000000000000000000000000000000000815260040160405180910390fd5b600088116113e3576040517f0471b37300000000000000000000000000000000000000000000000000000000815260040160405180910390fd5b60008a90503073ffffffffffffffffffffffffffffffffffffffff168173ffffffffffffffffffffffffffffffffffffffff1663081812fc8c6040518263ffffffff1660e01b8152600401611438919061293a565b602060405180830381865afa158015611455573d6000803e3d6000fd5b505050506040513d601f19601f820116820180604052508101906114799190613214565b73ffffffffffffffffffffffffffffffffffffffff16146114c6576040517f9e8d37b700000000000000000000000000000000000000000000000000000000815260040160405180910390fd5b60405180604001604052803373ffffffffffffffffffffffffffffffffffffffff1681526020018a815250600960008d73ffffffffffffffffffffffffffffffffffffffff1673ffffffffffffffffffffffffffffffffffffffff16815260200190815260200160002060008c815260200190815260200160002060008201518160000160006101000a81548173ffffffffffffffffffffffffffffffffffffffff021916908373ffffffffffffffffffffffffffffffffffffffff160217905550602082015181600101559050507f5e9f7a3ae1fe40f65136f56db979c8e5ec955bdaf0922b7dedd982bcf4acede1338c8c8c6040516115ca9493929190613174565b60405180910390a15050505050505050505050565b600860008154809291906115f2906132a1565b919050555061160333600854612150565b61165360085483838080601f016020809104026020016040519081016040528093929190818152602001838380828437600081840152601f19601f8201169050808301925050505050505061216e565b7fc49574ac8f41e63a43deaf1ef0eb8fef6eda59941eb27434349b81ca8408fc7333600854848460405161168a9493929190613316565b60405180910390a15050565b6000600560008473ffffffffffffffffffffffffffffffffffffffff1673ffffffffffffffffffffffffffffffffffffffff16815260200190815260200160002060008373ffffffffffffffffffffffffffffffffffffffff1673ffffffffffffffffffffffffffffffffffffffff16815260200190815260200160002060009054906101000a900460ff16905092915050565b828233600083905060008173ffffffffffffffffffffffffffffffffffffffff16636352211e856040518263ffffffff1660e01b815260040161176d919061293a565b602060405180830381865afa15801561178a573d6000803e3d6000fd5b505050506040513d601f19601f820116820180604052508101906117ae9190613214565b90508273ffffffffffffffffffffffffffffffffffffffff168173ffffffffffffffffffffffffffffffffffffffff1614611815576040517f7cf2c72b00000000000000000000000000000000000000000000000000000000815260040160405180910390fd5b87876000600960008473ffffffffffffffffffffffffffffffffffffffff1673ffffffffffffffffffffffffffffffffffffffff168152602001908152602001600020600083815260200190815260200160002060010154036118a4576040517f0a89e96c00000000000000000000000000000000000000000000000000000000815260040160405180910390fd5b600088116118de576040517f0471b37300000000000000000000000000000000000000000000000000000000815260040160405180910390fd5b87600960008c73ffffffffffffffffffffffffffffffffffffffff1673ffffffffffffffffffffffffffffffffffffffff16815260200190815260200160002060008b8152602001908152602001600020600101819055507f5e9f7a3ae1fe40f65136f56db979c8e5ec955bdaf0922b7dedd982bcf4acede1338b8b8b60405161196b9493929190613174565b60405180910390a150505050505050505050565b60007f80ac58cd000000000000000000000000000000000000000000000000000000007bffffffffffffffffffffffffffffffffffffffffffffffffffffffff1916827bffffffffffffffffffffffffffffffffffffffffffffffffffffffff19161480611a4a57507f5b5e139f000000000000000000000000000000000000000000000000000000007bffffffffffffffffffffffffffffffffffffffffffffffffffffffff1916827bffffffffffffffffffffffffffffffffffffffffffffffffffffffff1916145b80611a5a5750611a59826121ca565b5b9050919050565b600080611a6d83612234565b9050600073ffffffffffffffffffffffffffffffffffffffff168173ffffffffffffffffffffffffffffffffffffffff1603611ae057826040517f7e273289000000000000000000000000000000000000000000000000000000008152600401611ad7919061293a565b60405180910390fd5b80915050919050565b60006004600083815260200190815260200160002060009054906101000a900473ffffffffffffffffffffffffffffffffffffffff169050919050565b600033905090565b611b3b8383836001612271565b505050565b600080611b4c84612234565b9050600073ffffffffffffffffffffffffffffffffffffffff168373ffffffffffffffffffffffffffffffffffffffff1614611b8e57611b8d818486612436565b5b600073ffffffffffffffffffffffffffffffffffffffff168173ffffffffffffffffffffffffffffffffffffffff1614611c1f57611bd0600085600080612271565b6001600360008373ffffffffffffffffffffffffffffffffffffffff1673ffffffffffffffffffffffffffffffffffffffff168152602001908152602001600020600082825403925050819055505b600073ffffffffffffffffffffffffffffffffffffffff168573ffffffffffffffffffffffffffffffffffffffff1614611ca2576001600360008773ffffffffffffffffffffffffffffffffffffffff1673ffffffffffffffffffffffffffffffffffffffff168152602001908152602001600020600082825401925050819055505b846002600086815260200190815260200160002060006101000a81548173ffffffffffffffffffffffffffffffffffffffff021916908373ffffffffffffffffffffffffffffffffffffffff160217905550838573ffffffffffffffffffffffffffffffffffffffff168273ffffffffffffffffffffffffffffffffffffffff167fddf252ad1be2c89b69c2b068fc378daa952ba7f163c4a11628f55a4df523b3ef60405160405180910390a4809150509392505050565b600260075403611d96576040517f3ee5aeb500000000000000000000000000000000000000000000000000000000815260040160405180910390fd5b6002600781905550565b6001600781905550565b600073ffffffffffffffffffffffffffffffffffffffff168273ffffffffffffffffffffffffffffffffffffffff1603611e1b57816040517f5b08ba18000000000000000000000000000000000000000000000000000000008152600401611e129190612b70565b60405180910390fd5b80600560008573ffffffffffffffffffffffffffffffffffffffff1673ffffffffffffffffffffffffffffffffffffffff16815260200190815260200160002060008473ffffffffffffffffffffffffffffffffffffffff1673ffffffffffffffffffffffffffffffffffffffff16815260200190815260200160002060006101000a81548160ff0219169083151502179055508173ffffffffffffffffffffffffffffffffffffffff168373ffffffffffffffffffffffffffffffffffffffff167f17307eab39ab6107e8899845ad3d59bd9653f200f220920489ca2b5937696c3183604051611f0c9190612a09565b60405180910390a3505050565b60008373ffffffffffffffffffffffffffffffffffffffff163b11156120ca578273ffffffffffffffffffffffffffffffffffffffff1663150b7a02611f5d611b26565b8685856040518563ffffffff1660e01b8152600401611f7f94939291906133ab565b6020604051808303816000875af1925050508015611fbb57506040513d601f19601f82011682018060405250810190611fb8919061340c565b60015b61203f573d8060008114611feb576040519150601f19603f3d011682016040523d82523d6000602084013e611ff0565b606091505b50600081510361203757836040517f64a0ae9200000000000000000000000000000000000000000000000000000000815260040161202e9190612b70565b60405180910390fd5b805181602001fd5b63150b7a0260e01b7bffffffffffffffffffffffffffffffffffffffffffffffffffffffff1916817bffffffffffffffffffffffffffffffffffffffffffffffffffffffff1916146120c857836040517f64a0ae920000000000000000000000000000000000000000000000000000000081526004016120bf9190612b70565b60405180910390fd5b505b50505050565b606060405180602001604052806000815250905090565b60606120f282611a61565b5060006120fd6120d0565b9050600081511161211d5760405180602001604052806000815250612148565b80612127846124fa565b60405160200161213892919061327d565b6040516020818303038152906040525b915050919050565b61216a8282604051806020016040528060008152506125c8565b5050565b8060066000848152602001908152602001600020908161218e91906135e5565b507ff8e1a15aba9398e019f0b49df1a4fde98ee17ae345cb5f6b5e2c27f5033e8ce7826040516121be919061293a565b60405180910390a15050565b60007f01ffc9a7000000000000000000000000000000000000000000000000000000007bffffffffffffffffffffffffffffffffffffffffffffffffffffffff1916827bffffffffffffffffffffffffffffffffffffffffffffffffffffffff1916149050919050565b60006002600083815260200190815260200160002060009054906101000a900473ffffffffffffffffffffffffffffffffffffffff169050919050565b80806122aa5750600073ffffffffffffffffffffffffffffffffffffffff168273ffffffffffffffffffffffffffffffffffffffff1614155b156123de5760006122ba84611a61565b9050600073ffffffffffffffffffffffffffffffffffffffff168373ffffffffffffffffffffffffffffffffffffffff161415801561232557508273ffffffffffffffffffffffffffffffffffffffff168173ffffffffffffffffffffffffffffffffffffffff1614155b801561233857506123368184611696565b155b1561237a57826040517fa9fbf51f0000000000000000000000000000000000000000000000000000000081526004016123719190612b70565b60405180910390fd5b81156123dc57838573ffffffffffffffffffffffffffffffffffffffff168273ffffffffffffffffffffffffffffffffffffffff167f8c5be1e5ebec7d5bd14f71427d1e84f3dd0314c0f7b2291e5b200ac8c7c3b92560405160405180910390a45b505b836004600085815260200190815260200160002060006101000a81548173ffffffffffffffffffffffffffffffffffffffff021916908373ffffffffffffffffffffffffffffffffffffffff16021790555050505050565b6124418383836125e4565b6124f557600073ffffffffffffffffffffffffffffffffffffffff168373ffffffffffffffffffffffffffffffffffffffff16036124b657806040517f7e2732890000000000000000000000000000000000000000000000000000000081526004016124ad919061293a565b60405180910390fd5b81816040517f177e802f0000000000000000000000000000000000000000000000000000000081526004016124ec9291906136b7565b60405180910390fd5b505050565b606060006001612509846126a5565b01905060008167ffffffffffffffff81111561252857612527612d55565b5b6040519080825280601f01601f19166020018201604052801561255a5781602001600182028036833780820191505090505b509050600082602001820190505b6001156125bd578080600190039150507f3031323334353637383961626364656600000000000000000000000000000000600a86061a8153600a85816125b1576125b06136e0565b5b04945060008503612568575b819350505050919050565b6125d283836127f8565b6125df6000848484611f19565b505050565b60008073ffffffffffffffffffffffffffffffffffffffff168373ffffffffffffffffffffffffffffffffffffffff161415801561269c57508273ffffffffffffffffffffffffffffffffffffffff168473ffffffffffffffffffffffffffffffffffffffff16148061265d575061265c8484611696565b5b8061269b57508273ffffffffffffffffffffffffffffffffffffffff1661268383611ae9565b73ffffffffffffffffffffffffffffffffffffffff16145b5b90509392505050565b600080600090507a184f03e93ff9f4daa797ed6e38ed64bf6a1f0100000000000000008310612703577a184f03e93ff9f4daa797ed6e38ed64bf6a1f01000000000000000083816126f9576126f86136e0565b5b0492506040810190505b6d04ee2d6d415b85acef81000000008310612740576d04ee2d6d415b85acef81000000008381612736576127356136e0565b5b0492506020810190505b662386f26fc10000831061276f57662386f26fc100008381612765576127646136e0565b5b0492506010810190505b6305f5e1008310612798576305f5e100838161278e5761278d6136e0565b5b0492506008810190505b61271083106127bd5761271083816127b3576127b26136e0565b5b0492506004810190505b606483106127e057606483816127d6576127d56136e0565b5b0492506002810190505b600a83106127ef576001810190505b80915050919050565b600073ffffffffffffffffffffffffffffffffffffffff168273ffffffffffffffffffffffffffffffffffffffff160361286a5760006040517f64a0ae920000000000000000000000000000000000000000000000000000000081526004016128619190612b70565b60405180910390fd5b600061287883836000611b40565b9050600073ffffffffffffffffffffffffffffffffffffffff168173ffffffffffffffffffffffffffffffffffffffff16146128ec5760006040517f73c6ac6e0000000000000000000000000000000000000000000000000000000081526004016128e39190612b70565b60405180910390fd5b505050565b6040518060400160405280600073ffffffffffffffffffffffffffffffffffffffff168152602001600081525090565b6000819050919050565b61293481612921565b82525050565b600060208201905061294f600083018461292b565b92915050565b6000604051905090565b600080fd5b600080fd5b60007fffffffff0000000000000000000000000000000000000000000000000000000082169050919050565b61299e81612969565b81146129a957600080fd5b50565b6000813590506129bb81612995565b92915050565b6000602082840312156129d7576129d661295f565b5b60006129e5848285016129ac565b91505092915050565b60008115159050919050565b612a03816129ee565b82525050565b6000602082019050612a1e60008301846129fa565b92915050565b600081519050919050565b600082825260208201905092915050565b60005b83811015612a5e578082015181840152602081019050612a43565b60008484015250505050565b6000601f19601f8301169050919050565b6000612a8682612a24565b612a908185612a2f565b9350612aa0818560208601612a40565b612aa981612a6a565b840191505092915050565b60006020820190508181036000830152612ace8184612a7b565b905092915050565b612adf81612921565b8114612aea57600080fd5b50565b600081359050612afc81612ad6565b92915050565b600060208284031215612b1857612b1761295f565b5b6000612b2684828501612aed565b91505092915050565b600073ffffffffffffffffffffffffffffffffffffffff82169050919050565b6000612b5a82612b2f565b9050919050565b612b6a81612b4f565b82525050565b6000602082019050612b856000830184612b61565b92915050565b612b9481612b4f565b8114612b9f57600080fd5b50565b600081359050612bb181612b8b565b92915050565b60008060408385031215612bce57612bcd61295f565b5b6000612bdc85828601612ba2565b9250506020612bed85828601612aed565b9150509250929050565b600080600060608486031215612c1057612c0f61295f565b5b6000612c1e86828701612ba2565b9350506020612c2f86828701612ba2565b9250506040612c4086828701612aed565b9150509250925092565b600060208284031215612c6057612c5f61295f565b5b6000612c6e84828501612ba2565b91505092915050565b612c8081612b4f565b82525050565b612c8f81612921565b82525050565b604082016000820151612cab6000850182612c77565b506020820151612cbe6020850182612c86565b50505050565b6000604082019050612cd96000830184612c95565b92915050565b612ce8816129ee565b8114612cf357600080fd5b50565b600081359050612d0581612cdf565b92915050565b60008060408385031215612d2257612d2161295f565b5b6000612d3085828601612ba2565b9250506020612d4185828601612cf6565b9150509250929050565b600080fd5b600080fd5b7f4e487b7100000000000000000000000000000000000000000000000000000000600052604160045260246000fd5b612d8d82612a6a565b810181811067ffffffffffffffff82111715612dac57612dab612d55565b5b80604052505050565b6000612dbf612955565b9050612dcb8282612d84565b919050565b600067ffffffffffffffff821115612deb57612dea612d55565b5b612df482612a6a565b9050602081019050919050565b82818337600083830152505050565b6000612e23612e1e84612dd0565b612db5565b905082815260208101848484011115612e3f57612e3e612d50565b5b612e4a848285612e01565b509392505050565b600082601f830112612e6757612e66612d4b565b5b8135612e77848260208601612e10565b91505092915050565b60008060008060808587031215612e9a57612e9961295f565b5b6000612ea887828801612ba2565b9450506020612eb987828801612ba2565b9350506040612eca87828801612aed565b925050606085013567ffffffffffffffff811115612eeb57612eea612964565b5b612ef787828801612e52565b91505092959194509250565b600080600060608486031215612f1c57612f1b61295f565b5b6000612f2a86828701612ba2565b9350506020612f3b86828701612aed565b9250506040612f4c86828701612aed565b9150509250925092565b600080fd5b600080fd5b60008083601f840112612f7657612f75612d4b565b5b8235905067ffffffffffffffff811115612f9357612f92612f56565b5b602083019150836001820283011115612faf57612fae612f5b565b5b9250929050565b60008060208385031215612fcd57612fcc61295f565b5b600083013567ffffffffffffffff811115612feb57612fea612964565b5b612ff785828601612f60565b92509250509250929050565b6000806040838503121561301a5761301961295f565b5b600061302885828601612ba2565b925050602061303985828601612ba2565b9150509250929050565b7f4e487b7100000000000000000000000000000000000000000000000000000000600052602260045260246000fd5b6000600282049050600182168061308a57607f821691505b60208210810361309d5761309c613043565b5b50919050565b60006060820190506130b86000830186612b61565b6130c5602083018561292b565b6130d26040830184612b61565b949350505050565b7f4e487b7100000000000000000000000000000000000000000000000000000000600052601160045260246000fd5b600061311482612921565b915061311f83612921565b9250828201905080821115613137576131366130da565b5b92915050565b60006060820190506131526000830186612b61565b61315f6020830185612b61565b61316c604083018461292b565b949350505050565b60006080820190506131896000830187612b61565b6131966020830186612b61565b6131a3604083018561292b565b6131b0606083018461292b565b95945050505050565b600081905092915050565b50565b60006131d46000836131b9565b91506131df826131c4565b600082019050919050565b60006131f5826131c7565b9150819050919050565b60008151905061320e81612b8b565b92915050565b60006020828403121561322a5761322961295f565b5b6000613238848285016131ff565b91505092915050565b600081905092915050565b600061325782612a24565b6132618185613241565b9350613271818560208601612a40565b80840191505092915050565b6000613289828561324c565b9150613295828461324c565b91508190509392505050565b60006132ac82612921565b91507fffffffffffffffffffffffffffffffffffffffffffffffffffffffffffffffff82036132de576132dd6130da565b5b600182019050919050565b60006132f58385612a2f565b9350613302838584612e01565b61330b83612a6a565b840190509392505050565b600060608201905061332b6000830187612b61565b613338602083018661292b565b818103604083015261334b8184866132e9565b905095945050505050565b600081519050919050565b600082825260208201905092915050565b600061337d82613356565b6133878185613361565b9350613397818560208601612a40565b6133a081612a6a565b840191505092915050565b60006080820190506133c06000830187612b61565b6133cd6020830186612b61565b6133da604083018561292b565b81810360608301526133ec8184613372565b905095945050505050565b60008151905061340681612995565b92915050565b6000602082840312156134225761342161295f565b5b6000613430848285016133f7565b91505092915050565b60008190508160005260206000209050919050565b60006020601f8301049050919050565b600082821b905092915050565b60006008830261349b7fffffffffffffffffffffffffffffffffffffffffffffffffffffffffffffffff8261345e565b6134a5868361345e565b95508019841693508086168417925050509392505050565b6000819050919050565b60006134e26134dd6134d884612921565b6134bd565b612921565b9050919050565b6000819050919050565b6134fc836134c7565b613510613508826134e9565b84845461346b565b825550505050565b600090565b613525613518565b6135308184846134f3565b505050565b5b818110156135545761354960008261351d565b600181019050613536565b5050565b601f8211156135995761356a81613439565b6135738461344e565b81016020851015613582578190505b61359661358e8561344e565b830182613535565b50505b505050565b600082821c905092915050565b60006135bc6000198460080261359e565b1980831691505092915050565b60006135d583836135ab565b9150826002028217905092915050565b6135ee82612a24565b67ffffffffffffffff81111561360757613606612d55565b5b6136118254613072565b61361c828285613558565b600060209050601f83116001811461364f576000841561363d578287015190505b61364785826135c9565b8655506136af565b601f19841661365d86613439565b60005b8281101561368557848901518255600182019150602085019450602081019050613660565b868310156136a2578489015161369e601f8916826135ab565b8355505b6001600288020188555050505b505050505050565b60006040820190506136cc6000830185612b61565b6136d9602083018461292b565b9392505050565b7f4e487b7100000000000000000000000000000000000000000000000000000000600052601260045260246000fdfea264697066735822122063ffff83a4d179cbed1a126329cbc2d3789244946a2d794b626510e1c7ac7fb364736f6c63430008180033",
  "devdoc": {
    "errors": {
      "ERC721IncorrectOwner(address,uint256,address)": [
        {
          "details": "Indicates an error related to the ownership over a particular token. Used in transfers.",
          "params": {
            "owner": "Address of the current owner of a token.",
            "sender": "Address whose tokens are being transferred.",
            "tokenId": "Identifier number of a token."
          }
        }
      ],
      "ERC721InsufficientApproval(address,uint256)": [
        {
          "details": "Indicates a failure with the `operator`s approval. Used in transfers.",
          "params": {
            "operator": "Address that may be allowed to operate on tokens without being their owner.",
            "tokenId": "Identifier number of a token."
          }
        }
      ],
      "ERC721InvalidApprover(address)": [
        {
          "details": "Indicates a failure with the `approver` of a token to be approved. Used in approvals.",
          "params": {
            "approver": "Address initiating an approval operation."
          }
        }
      ],
      "ERC721InvalidOperator(address)": [
        {
          "details": "Indicates a failure with the `operator` to be approved. Used in approvals.",
          "params": {
            "operator": "Address that may be allowed to operate on tokens without being their owner."
          }
        }
      ],
      "ERC721InvalidOwner(address)": [
        {
          "details": "Indicates that an address can't be an owner. For example, `address(0)` is a forbidden owner in EIP-20. Used in balance queries.",
          "params": {
            "owner": "Address of the current owner of a token."
          }
        }
      ],
      "ERC721InvalidReceiver(address)": [
        {
          "details": "Indicates a failure with the token `receiver`. Used in transfers.",
          "params": {
            "receiver": "Address to which tokens are being transferred."
          }
        }
      ],
      "ERC721InvalidSender(address)": [
        {
          "details": "Indicates a failure with the token `sender`. Used in transfers.",
          "params": {
            "sender": "Address whose tokens are being transferred."
          }
        }
      ],
      "ERC721NonexistentToken(uint256)": [
        {
          "details": "Indicates a `tokenId` whose `owner` is the zero address.",
          "params": {
            "tokenId": "Identifier number of a token."
          }
        }
      ],
      "ReentrancyGuardReentrantCall()": [
        {
          "details": "Unauthorized reentrant call."
        }
      ]
    },
    "events": {
      "Approval(address,address,uint256)": {
        "details": "Emitted when `owner` enables `approved` to manage the `tokenId` token."
      },
      "ApprovalForAll(address,address,bool)": {
        "details": "Emitted when `owner` enables or disables (`approved`) `operator` to manage all of its assets."
      },
      "BatchMetadataUpdate(uint256,uint256)": {
        "details": "This event emits when the metadata of a range of tokens is changed. So that the third-party platforms such as NFT market could timely update the images and related attributes of the NFTs."
      },
      "MetadataUpdate(uint256)": {
        "details": "This event emits when the metadata of a token is changed. So that the third-party platforms such as NFT market could timely update the images and related attributes of the NFT."
      },
      "Transfer(address,address,uint256)": {
        "details": "Emitted when `tokenId` token is transferred from `from` to `to`."
      }
    },
    "kind": "dev",
    "methods": {
      "approve(address,uint256)": {
        "details": "See {IERC721-approve}."
      },
      "balanceOf(address)": {
        "details": "See {IERC721-balanceOf}."
      },
      "buyNft(address,uint256)": {
        "details": "This function buy the NFT with the given price",
        "params": {
          "nftAddress": ": Address of the NFT",
          "tokenId": ": ID of the NFT"
        }
      },
      "cancelListing(address,uint256)": {
        "details": "This function cancel the listing of the NFT",
        "params": {
          "nftAddress": ": Address of the NFT",
          "tokenId": ": ID of the NFT"
        }
      },
      "createNFT(string)": {
        "details": "This function increment the token ID each time before minting the token for caller's address and setting the tokenURI",
        "params": {
          "tokenURI": ": URI of the token"
        }
      },
      "getApproved(uint256)": {
        "details": "See {IERC721-getApproved}."
      },
      "isApprovedForAll(address,address)": {
        "details": "See {IERC721-isApprovedForAll}."
      },
      "listNft(address,uint256,uint256)": {
        "details": "This function list the NFT with the given price",
        "params": {
          "nftAddress": ": Address of the NFT",
          "price": ": Price of the NFT",
          "tokenId": ": ID of the NFT"
        }
      },
      "name()": {
        "details": "See {IERC721Metadata-name}."
      },
      "ownerOf(uint256)": {
        "details": "See {IERC721-ownerOf}."
      },
      "safeTransferFrom(address,address,uint256)": {
        "details": "See {IERC721-safeTransferFrom}."
      },
      "safeTransferFrom(address,address,uint256,bytes)": {
        "details": "See {IERC721-safeTransferFrom}."
      },
      "setApprovalForAll(address,bool)": {
        "details": "See {IERC721-setApprovalForAll}."
      },
      "supportsInterface(bytes4)": {
        "details": "See {IERC165-supportsInterface}"
      },
      "symbol()": {
        "details": "See {IERC721Metadata-symbol}."
      },
      "tokenURI(uint256)": {
        "details": "See {IERC721Metadata-tokenURI}."
      },
      "transferFrom(address,address,uint256)": {
        "details": "See {IERC721-transferFrom}."
      },
      "updateListing(address,uint256,uint256)": {
        "details": "This function update the listing of the NFT with the new price",
        "params": {
          "newPrice": ": New price of the NFT",
          "nftAddress": ": Address of the NFT",
          "tokenId": ": ID of the NFT"
        }
      },
      "withdrawProceeds()": {
        "details": "This function withdraw the proceeds of the seller"
      }
    },
    "version": 1
  },
  "userdoc": {
    "kind": "user",
    "methods": {
      "buyNft(address,uint256)": {
        "notice": "Buy an NFT"
      },
      "cancelListing(address,uint256)": {
        "notice": "Cancel the listing of an NFT"
      },
      "createNFT(string)": {
        "notice": "Create a new NFT"
      },
      "listNft(address,uint256,uint256)": {
        "notice": "List an NFT"
      },
      "updateListing(address,uint256,uint256)": {
        "notice": "Update the listing of an NFT"
      },
      "withdrawProceeds()": {
        "notice": "Withdraw the proceeds"
      }
    },
    "version": 1
  },
  "storageLayout": {
    "storage": [
      {
        "astId": 201,
        "contract": "contracts/NFTMarket.sol:NFTMarket",
        "label": "_name",
        "offset": 0,
        "slot": "0",
        "type": "t_string_storage"
      },
      {
        "astId": 203,
        "contract": "contracts/NFTMarket.sol:NFTMarket",
        "label": "_symbol",
        "offset": 0,
        "slot": "1",
        "type": "t_string_storage"
      },
      {
        "astId": 207,
        "contract": "contracts/NFTMarket.sol:NFTMarket",
        "label": "_owners",
        "offset": 0,
        "slot": "2",
        "type": "t_mapping(t_uint256,t_address)"
      },
      {
        "astId": 211,
        "contract": "contracts/NFTMarket.sol:NFTMarket",
        "label": "_balances",
        "offset": 0,
        "slot": "3",
        "type": "t_mapping(t_address,t_uint256)"
      },
      {
        "astId": 215,
        "contract": "contracts/NFTMarket.sol:NFTMarket",
        "label": "_tokenApprovals",
        "offset": 0,
        "slot": "4",
        "type": "t_mapping(t_uint256,t_address)"
      },
      {
        "astId": 221,
        "contract": "contracts/NFTMarket.sol:NFTMarket",
        "label": "_operatorApprovals",
        "offset": 0,
        "slot": "5",
        "type": "t_mapping(t_address,t_mapping(t_address,t_bool))"
      },
      {
        "astId": 1340,
        "contract": "contracts/NFTMarket.sol:NFTMarket",
        "label": "_tokenURIs",
        "offset": 0,
        "slot": "6",
        "type": "t_mapping(t_uint256,t_string_storage)"
      },
      {
        "astId": 1507,
        "contract": "contracts/NFTMarket.sol:NFTMarket",
        "label": "_status",
        "offset": 0,
        "slot": "7",
        "type": "t_uint256"
      },
      {
        "astId": 3047,
        "contract": "contracts/NFTMarket.sol:NFTMarket",
        "label": "s_tokenId",
        "offset": 0,
        "slot": "8",
        "type": "t_uint256"
      },
      {
        "astId": 3054,
        "contract": "contracts/NFTMarket.sol:NFTMarket",
        "label": "s_listings",
        "offset": 0,
        "slot": "9",
        "type": "t_mapping(t_address,t_mapping(t_uint256,t_struct(Listing)3045_storage))"
      },
      {
        "astId": 3058,
        "contract": "contracts/NFTMarket.sol:NFTMarket",
        "label": "s_proceeds",
        "offset": 0,
        "slot": "10",
        "type": "t_mapping(t_address,t_uint256)"
      }
    ],
    "types": {
      "t_address": {
        "encoding": "inplace",
        "label": "address",
        "numberOfBytes": "20"
      },
      "t_bool": {
        "encoding": "inplace",
        "label": "bool",
        "numberOfBytes": "1"
      },
      "t_mapping(t_address,t_bool)": {
        "encoding": "mapping",
        "key": "t_address",
        "label": "mapping(address => bool)",
        "numberOfBytes": "32",
        "value": "t_bool"
      },
      "t_mapping(t_address,t_mapping(t_address,t_bool))": {
        "encoding": "mapping",
        "key": "t_address",
        "label": "mapping(address => mapping(address => bool))",
        "numberOfBytes": "32",
        "value": "t_mapping(t_address,t_bool)"
      },
      "t_mapping(t_address,t_mapping(t_uint256,t_struct(Listing)3045_storage))": {
        "encoding": "mapping",
        "key": "t_address",
        "label": "mapping(address => mapping(uint256 => struct NFTMarket.Listing))",
        "numberOfBytes": "32",
        "value": "t_mapping(t_uint256,t_struct(Listing)3045_storage)"
      },
      "t_mapping(t_address,t_uint256)": {
        "encoding": "mapping",
        "key": "t_address",
        "label": "mapping(address => uint256)",
        "numberOfBytes": "32",
        "value": "t_uint256"
      },
      "t_mapping(t_uint256,t_address)": {
        "encoding": "mapping",
        "key": "t_uint256",
        "label": "mapping(uint256 => address)",
        "numberOfBytes": "32",
        "value": "t_address"
      },
      "t_mapping(t_uint256,t_string_storage)": {
        "encoding": "mapping",
        "key": "t_uint256",
        "label": "mapping(uint256 => string)",
        "numberOfBytes": "32",
        "value": "t_string_storage"
      },
      "t_mapping(t_uint256,t_struct(Listing)3045_storage)": {
        "encoding": "mapping",
        "key": "t_uint256",
        "label": "mapping(uint256 => struct NFTMarket.Listing)",
        "numberOfBytes": "32",
        "value": "t_struct(Listing)3045_storage"
      },
      "t_string_storage": {
        "encoding": "bytes",
        "label": "string",
        "numberOfBytes": "32"
      },
      "t_struct(Listing)3045_storage": {
        "encoding": "inplace",
        "label": "struct NFTMarket.Listing",
        "members": [
          {
            "astId": 3042,
            "contract": "contracts/NFTMarket.sol:NFTMarket",
            "label": "seller",
            "offset": 0,
            "slot": "0",
            "type": "t_address"
          },
          {
            "astId": 3044,
            "contract": "contracts/NFTMarket.sol:NFTMarket",
            "label": "price",
            "offset": 0,
            "slot": "1",
            "type": "t_uint256"
          }
        ],
        "numberOfBytes": "64"
      },
      "t_uint256": {
        "encoding": "inplace",
        "label": "uint256",
        "numberOfBytes": "32"
      }
    }
  }
}