{
  "address": "0xe7f1725E7734CE288F8367e1Bb143E90bb3F0512",
  "abi": [
    {
      "inputs": [],
      "name": "NFTMarket__AlreadyListed",
      "type": "error"
    },
    {
      "inputs": [],
      "name": "NFTMarket__InvalidAddress",
      "type": "error"
    },
    {
      "inputs": [],
      "name": "NFTMarket__InvalidPrice",
      "type": "error"
    },
    {
      "inputs": [],
      "name": "NFTMarket__NoProceeds",
      "type": "error"
    },
    {
      "inputs": [],
      "name": "NFTMarket__NotApproved",
      "type": "error"
    },
    {
      "inputs": [],
      "name": "NFTMarket__NotListed",
      "type": "error"
    },
    {
      "inputs": [],
      "name": "NFTMarket__NotOwner",
      "type": "error"
    },
    {
      "inputs": [],
      "name": "NFTMarket__PriceNotMet",
      "type": "error"
    },
    {
      "inputs": [],
      "name": "NFTMarket__TransferFailed",
      "type": "error"
    },
    {
      "inputs": [],
      "name": "ReentrancyGuardReentrantCall",
      "type": "error"
    },
    {
      "anonymous": false,
      "inputs": [
        {
          "indexed": false,
          "internalType": "address",
          "name": "buyer",
          "type": "address"
        },
        {
          "indexed": false,
          "internalType": "address",
          "name": "nftAddress",
          "type": "address"
        },
        {
          "indexed": false,
          "internalType": "uint256",
          "name": "tokenId",
          "type": "uint256"
        },
        {
          "indexed": false,
          "internalType": "uint256",
          "name": "price",
          "type": "uint256"
        }
      ],
      "name": "nftBought",
      "type": "event"
    },
    {
      "anonymous": false,
      "inputs": [
        {
          "indexed": false,
          "internalType": "address",
          "name": "seller",
          "type": "address"
        },
        {
          "indexed": false,
          "internalType": "address",
          "name": "nftAddress",
          "type": "address"
        },
        {
          "indexed": false,
          "internalType": "uint256",
          "name": "tokenId",
          "type": "uint256"
        }
      ],
      "name": "nftCancelled",
      "type": "event"
    },
    {
      "anonymous": false,
      "inputs": [
        {
          "indexed": false,
          "internalType": "address",
          "name": "seller",
          "type": "address"
        },
        {
          "indexed": false,
          "internalType": "address",
          "name": "nftAddress",
          "type": "address"
        },
        {
          "indexed": false,
          "internalType": "uint256",
          "name": "tokenId",
          "type": "uint256"
        },
        {
          "indexed": false,
          "internalType": "uint256",
          "name": "price",
          "type": "uint256"
        }
      ],
      "name": "nftListed",
      "type": "event"
    },
    {
      "inputs": [
        {
          "internalType": "address",
          "name": "nftAddress",
          "type": "address"
        },
        {
          "internalType": "uint256",
          "name": "tokenId",
          "type": "uint256"
        }
      ],
      "name": "buyNft",
      "outputs": [],
      "stateMutability": "payable",
      "type": "function"
    },
    {
      "inputs": [
        {
          "internalType": "address",
          "name": "nftAddress",
          "type": "address"
        },
        {
          "internalType": "uint256",
          "name": "tokenId",
          "type": "uint256"
        }
      ],
      "name": "cancelListing",
      "outputs": [],
      "stateMutability": "nonpayable",
      "type": "function"
    },
    {
      "inputs": [
        {
          "internalType": "address",
          "name": "nftAddress",
          "type": "address"
        },
        {
          "internalType": "uint256",
          "name": "tokenId",
          "type": "uint256"
        }
      ],
      "name": "getListing",
      "outputs": [
        {
          "components": [
            {
              "internalType": "address",
              "name": "seller",
              "type": "address"
            },
            {
              "internalType": "uint256",
              "name": "price",
              "type": "uint256"
            }
          ],
          "internalType": "struct NFTMarket.Listing",
          "name": "",
          "type": "tuple"
        }
      ],
      "stateMutability": "view",
      "type": "function"
    },
    {
      "inputs": [
        {
          "internalType": "address",
          "name": "seller",
          "type": "address"
        }
      ],
      "name": "getProceeds",
      "outputs": [
        {
          "internalType": "uint256",
          "name": "",
          "type": "uint256"
        }
      ],
      "stateMutability": "view",
      "type": "function"
    },
    {
      "inputs": [
        {
          "internalType": "address",
          "name": "nftAddress",
          "type": "address"
        },
        {
          "internalType": "uint256",
          "name": "tokenId",
          "type": "uint256"
        },
        {
          "internalType": "uint256",
          "name": "price",
          "type": "uint256"
        }
      ],
      "name": "listNft",
      "outputs": [],
      "stateMutability": "nonpayable",
      "type": "function"
    },
    {
      "inputs": [
        {
          "internalType": "address",
          "name": "nftAddress",
          "type": "address"
        },
        {
          "internalType": "uint256",
          "name": "tokenId",
          "type": "uint256"
        },
        {
          "internalType": "uint256",
          "name": "newPrice",
          "type": "uint256"
        }
      ],
      "name": "updateListing",
      "outputs": [],
      "stateMutability": "nonpayable",
      "type": "function"
    },
    {
      "inputs": [],
      "name": "withdrawProceeds",
      "outputs": [],
      "stateMutability": "nonpayable",
      "type": "function"
    }
  ],
  "transactionHash": "0xcef385030ba5e59fb96cd31688733e7911e343d6c699c2d2f292ae627d0b8bd4",
  "args": [],
  "numDeployments": 1,
  "solcInputHash": "72c0453b2056095d0e09b63926f322e6",
  "bytecode": "0x608060405234801561001057600080fd5b506001600081905550611650806100286000396000f3fe6080604052600436106100705760003560e01c80639038e6931161004e5780639038e6931461010b578063b2ddee0614610122578063c922b17c1461014b578063f772adf11461017457610070565b806330cfeda9146100755780634ddf4f8f146100b257806388700d1c146100ce575b600080fd5b34801561008157600080fd5b5061009c6004803603810190610097919061131c565b61019d565b6040516100a99190611362565b60405180910390f35b6100cc60048036038101906100c791906113a9565b6101e6565b005b3480156100da57600080fd5b506100f560048036038101906100f091906113a9565b6105c2565b6040516101029190611436565b60405180910390f35b34801561011757600080fd5b5061012061068d565b005b34801561012e57600080fd5b50610149600480360381019061014491906113a9565b6107f7565b005b34801561015757600080fd5b50610172600480360381019061016d9190611451565b610ae2565b005b34801561018057600080fd5b5061019b60048036038101906101969190611451565b610f3b565b005b6000600260008373ffffffffffffffffffffffffffffffffffffffff1673ffffffffffffffffffffffffffffffffffffffff168152602001908152602001600020549050919050565b6101ee611239565b81600073ffffffffffffffffffffffffffffffffffffffff168173ffffffffffffffffffffffffffffffffffffffff1603610255576040517f2d750dea00000000000000000000000000000000000000000000000000000000815260040160405180910390fd5b6000813b905060008103610295576040517f2d750dea00000000000000000000000000000000000000000000000000000000815260040160405180910390fd5b83836000600160008473ffffffffffffffffffffffffffffffffffffffff1673ffffffffffffffffffffffffffffffffffffffff16815260200190815260200160002060008381526020019081526020016000206001015403610324576040517f0a89e96c00000000000000000000000000000000000000000000000000000000815260040160405180910390fd5b6000600160008873ffffffffffffffffffffffffffffffffffffffff1673ffffffffffffffffffffffffffffffffffffffff16815260200190815260200160002060008781526020019081526020016000206040518060400160405290816000820160009054906101000a900473ffffffffffffffffffffffffffffffffffffffff1673ffffffffffffffffffffffffffffffffffffffff1673ffffffffffffffffffffffffffffffffffffffff16815260200160018201548152505090508060200151341015610421576040517f155b6fe800000000000000000000000000000000000000000000000000000000815260040160405180910390fd5b3460026000836000015173ffffffffffffffffffffffffffffffffffffffff1673ffffffffffffffffffffffffffffffffffffffff168152602001908152602001600020600082825461047491906114d3565b92505081905550600160008873ffffffffffffffffffffffffffffffffffffffff1673ffffffffffffffffffffffffffffffffffffffff1681526020019081526020016000206000878152602001908152602001600020600080820160006101000a81549073ffffffffffffffffffffffffffffffffffffffff0219169055600182016000905550508673ffffffffffffffffffffffffffffffffffffffff166342842e0e826000015133896040518463ffffffff1660e01b815260040161053e93929190611516565b600060405180830381600087803b15801561055857600080fd5b505af115801561056c573d6000803e3d6000fd5b505050507fc5b3b80750ab8e83675340475f495e9c945b53d3ac992735f8361f1d6308335633888884602001516040516105a9949392919061154d565b60405180910390a150505050506105be61127f565b5050565b6105ca611289565b600160008473ffffffffffffffffffffffffffffffffffffffff1673ffffffffffffffffffffffffffffffffffffffff16815260200190815260200160002060008381526020019081526020016000206040518060400160405290816000820160009054906101000a900473ffffffffffffffffffffffffffffffffffffffff1673ffffffffffffffffffffffffffffffffffffffff1673ffffffffffffffffffffffffffffffffffffffff168152602001600182015481525050905092915050565b6000600260003373ffffffffffffffffffffffffffffffffffffffff1673ffffffffffffffffffffffffffffffffffffffff1681526020019081526020016000205490506000810361070b576040517f332616af00000000000000000000000000000000000000000000000000000000815260040160405180910390fd5b6000600260003373ffffffffffffffffffffffffffffffffffffffff1673ffffffffffffffffffffffffffffffffffffffff1681526020019081526020016000208190555060003373ffffffffffffffffffffffffffffffffffffffff1682604051610776906115c3565b60006040518083038185875af1925050503d80600081146107b3576040519150601f19603f3d011682016040523d82523d6000602084013e6107b8565b606091505b50509050806107f3576040517f42c40fa400000000000000000000000000000000000000000000000000000000815260040160405180910390fd5b5050565b81600073ffffffffffffffffffffffffffffffffffffffff168173ffffffffffffffffffffffffffffffffffffffff160361085e576040517f2d750dea00000000000000000000000000000000000000000000000000000000815260040160405180910390fd5b6000813b90506000810361089e576040517f2d750dea00000000000000000000000000000000000000000000000000000000815260040160405180910390fd5b838333600083905060008173ffffffffffffffffffffffffffffffffffffffff16636352211e856040518263ffffffff1660e01b81526004016108e19190611362565b602060405180830381865afa1580156108fe573d6000803e3d6000fd5b505050506040513d601f19601f8201168201806040525081019061092291906115ed565b90508073ffffffffffffffffffffffffffffffffffffffff168373ffffffffffffffffffffffffffffffffffffffff1614610989576040517f7cf2c72b00000000000000000000000000000000000000000000000000000000815260040160405180910390fd5b88886000600160008473ffffffffffffffffffffffffffffffffffffffff1673ffffffffffffffffffffffffffffffffffffffff16815260200190815260200160002060008381526020019081526020016000206001015403610a18576040517f0a89e96c00000000000000000000000000000000000000000000000000000000815260040160405180910390fd5b600160008c73ffffffffffffffffffffffffffffffffffffffff1673ffffffffffffffffffffffffffffffffffffffff16815260200190815260200160002060008b8152602001908152602001600020600080820160006101000a81549073ffffffffffffffffffffffffffffffffffffffff0219169055600182016000905550507f42276601a43b0d52a25a0acd767d79c39b44173a9710a2aa41fa94ed6c443dd0338c8c604051610acd93929190611516565b60405180910390a15050505050505050505050565b82600073ffffffffffffffffffffffffffffffffffffffff168173ffffffffffffffffffffffffffffffffffffffff1603610b49576040517f2d750dea00000000000000000000000000000000000000000000000000000000815260040160405180910390fd5b6000813b905060008103610b89576040517f2d750dea00000000000000000000000000000000000000000000000000000000815260040160405180910390fd5b84846000600160008473ffffffffffffffffffffffffffffffffffffffff1673ffffffffffffffffffffffffffffffffffffffff16815260200190815260200160002060008381526020019081526020016000206001015414610c18576040517f9168126700000000000000000000000000000000000000000000000000000000815260040160405180910390fd5b868633600083905060008173ffffffffffffffffffffffffffffffffffffffff16636352211e856040518263ffffffff1660e01b8152600401610c5b9190611362565b602060405180830381865afa158015610c78573d6000803e3d6000fd5b505050506040513d601f19601f82011682018060405250810190610c9c91906115ed565b90508073ffffffffffffffffffffffffffffffffffffffff168373ffffffffffffffffffffffffffffffffffffffff1614610d03576040517f7cf2c72b00000000000000000000000000000000000000000000000000000000815260040160405180910390fd5b60008a11610d3d576040517f0471b37300000000000000000000000000000000000000000000000000000000815260040160405180910390fd5b60008c90503073ffffffffffffffffffffffffffffffffffffffff168173ffffffffffffffffffffffffffffffffffffffff1663081812fc8e6040518263ffffffff1660e01b8152600401610d929190611362565b602060405180830381865afa158015610daf573d6000803e3d6000fd5b505050506040513d601f19601f82011682018060405250810190610dd391906115ed565b73ffffffffffffffffffffffffffffffffffffffff1614610e20576040517f9e8d37b700000000000000000000000000000000000000000000000000000000815260040160405180910390fd5b60405180604001604052803373ffffffffffffffffffffffffffffffffffffffff1681526020018c815250600160008f73ffffffffffffffffffffffffffffffffffffffff1673ffffffffffffffffffffffffffffffffffffffff16815260200190815260200160002060008e815260200190815260200160002060008201518160000160006101000a81548173ffffffffffffffffffffffffffffffffffffffff021916908373ffffffffffffffffffffffffffffffffffffffff160217905550602082015181600101559050507f5e9f7a3ae1fe40f65136f56db979c8e5ec955bdaf0922b7dedd982bcf4acede1338e8e8e604051610f24949392919061154d565b60405180910390a150505050505050505050505050565b82600073ffffffffffffffffffffffffffffffffffffffff168173ffffffffffffffffffffffffffffffffffffffff1603610fa2576040517f2d750dea00000000000000000000000000000000000000000000000000000000815260040160405180910390fd5b6000813b905060008103610fe2576040517f2d750dea00000000000000000000000000000000000000000000000000000000815260040160405180910390fd5b848433600083905060008173ffffffffffffffffffffffffffffffffffffffff16636352211e856040518263ffffffff1660e01b81526004016110259190611362565b602060405180830381865afa158015611042573d6000803e3d6000fd5b505050506040513d601f19601f8201168201806040525081019061106691906115ed565b90508073ffffffffffffffffffffffffffffffffffffffff168373ffffffffffffffffffffffffffffffffffffffff16146110cd576040517f7cf2c72b00000000000000000000000000000000000000000000000000000000815260040160405180910390fd5b89896000600160008473ffffffffffffffffffffffffffffffffffffffff1673ffffffffffffffffffffffffffffffffffffffff1681526020019081526020016000206000838152602001908152602001600020600101540361115c576040517f0a89e96c00000000000000000000000000000000000000000000000000000000815260040160405180910390fd5b60008a11611196576040517f0471b37300000000000000000000000000000000000000000000000000000000815260040160405180910390fd5b89600160008e73ffffffffffffffffffffffffffffffffffffffff1673ffffffffffffffffffffffffffffffffffffffff16815260200190815260200160002060008d8152602001908152602001600020600101819055507f5e9f7a3ae1fe40f65136f56db979c8e5ec955bdaf0922b7dedd982bcf4acede1338d8d8d604051611223949392919061154d565b60405180910390a1505050505050505050505050565b600260005403611275576040517f3ee5aeb500000000000000000000000000000000000000000000000000000000815260040160405180910390fd5b6002600081905550565b6001600081905550565b6040518060400160405280600073ffffffffffffffffffffffffffffffffffffffff168152602001600081525090565b600080fd5b600073ffffffffffffffffffffffffffffffffffffffff82169050919050565b60006112e9826112be565b9050919050565b6112f9816112de565b811461130457600080fd5b50565b600081359050611316816112f0565b92915050565b600060208284031215611332576113316112b9565b5b600061134084828501611307565b91505092915050565b6000819050919050565b61135c81611349565b82525050565b60006020820190506113776000830184611353565b92915050565b61138681611349565b811461139157600080fd5b50565b6000813590506113a38161137d565b92915050565b600080604083850312156113c0576113bf6112b9565b5b60006113ce85828601611307565b92505060206113df85828601611394565b9150509250929050565b6113f2816112de565b82525050565b61140181611349565b82525050565b60408201600082015161141d60008501826113e9565b50602082015161143060208501826113f8565b50505050565b600060408201905061144b6000830184611407565b92915050565b60008060006060848603121561146a576114696112b9565b5b600061147886828701611307565b935050602061148986828701611394565b925050604061149a86828701611394565b9150509250925092565b7f4e487b7100000000000000000000000000000000000000000000000000000000600052601160045260246000fd5b60006114de82611349565b91506114e983611349565b9250828201905080821115611501576115006114a4565b5b92915050565b611510816112de565b82525050565b600060608201905061152b6000830186611507565b6115386020830185611507565b6115456040830184611353565b949350505050565b60006080820190506115626000830187611507565b61156f6020830186611507565b61157c6040830185611353565b6115896060830184611353565b95945050505050565b600081905092915050565b50565b60006115ad600083611592565b91506115b88261159d565b600082019050919050565b60006115ce826115a0565b9150819050919050565b6000815190506115e7816112f0565b92915050565b600060208284031215611603576116026112b9565b5b6000611611848285016115d8565b9150509291505056fea2646970667358221220ebc9ec86cdccf12f5d9df895dd86bb01d879ad79ed4b4c8b13288eafe70978a964736f6c63430008180033",
  "devdoc": {
    "errors": {
      "ReentrancyGuardReentrantCall()": [
        {
          "details": "Unauthorized reentrant call."
        }
      ]
    },
    "kind": "dev",
    "methods": {
      "buyNft(address,uint256)": {
        "details": "This function buy the NFT with the given price",
        "params": {
          "nftAddress": ": Address of the NFT",
          "tokenId": ": ID of the NFT"
        }
      },
      "cancelListing(address,uint256)": {
        "details": "This function cancel the listing of the NFT",
        "params": {
          "nftAddress": ": Address of the NFT",
          "tokenId": ": ID of the NFT"
        }
      },
      "listNft(address,uint256,uint256)": {
        "details": "This function list the NFT with the given price",
        "params": {
          "nftAddress": ": Address of the NFT",
          "price": ": Price of the NFT",
          "tokenId": ": ID of the NFT"
        }
      },
      "updateListing(address,uint256,uint256)": {
        "details": "This function update the listing of the NFT with the new price",
        "params": {
          "newPrice": ": New price of the NFT",
          "nftAddress": ": Address of the NFT",
          "tokenId": ": ID of the NFT"
        }
      },
      "withdrawProceeds()": {
        "details": "This function withdraw the proceeds of the seller"
      }
    },
    "version": 1
  },
  "userdoc": {
    "kind": "user",
    "methods": {
      "buyNft(address,uint256)": {
        "notice": "Buy an NFT"
      },
      "cancelListing(address,uint256)": {
        "notice": "Cancel the listing of an NFT"
      },
      "listNft(address,uint256,uint256)": {
        "notice": "List an NFT"
      },
      "updateListing(address,uint256,uint256)": {
        "notice": "Update the listing of an NFT"
      },
      "withdrawProceeds()": {
        "notice": "Withdraw the proceeds"
      }
    },
    "version": 1
  },
  "storageLayout": {
    "storage": [
      {
        "astId": 127,
        "contract": "contracts/NFTMarket.sol:NFTMarket",
        "label": "_status",
        "offset": 0,
        "slot": "0",
        "type": "t_uint256"
      },
      {
        "astId": 233,
        "contract": "contracts/NFTMarket.sol:NFTMarket",
        "label": "s_listings",
        "offset": 0,
        "slot": "1",
        "type": "t_mapping(t_address,t_mapping(t_uint256,t_struct(Listing)226_storage))"
      },
      {
        "astId": 237,
        "contract": "contracts/NFTMarket.sol:NFTMarket",
        "label": "s_proceeds",
        "offset": 0,
        "slot": "2",
        "type": "t_mapping(t_address,t_uint256)"
      }
    ],
    "types": {
      "t_address": {
        "encoding": "inplace",
        "label": "address",
        "numberOfBytes": "20"
      },
      "t_mapping(t_address,t_mapping(t_uint256,t_struct(Listing)226_storage))": {
        "encoding": "mapping",
        "key": "t_address",
        "label": "mapping(address => mapping(uint256 => struct NFTMarket.Listing))",
        "numberOfBytes": "32",
        "value": "t_mapping(t_uint256,t_struct(Listing)226_storage)"
      },
      "t_mapping(t_address,t_uint256)": {
        "encoding": "mapping",
        "key": "t_address",
        "label": "mapping(address => uint256)",
        "numberOfBytes": "32",
        "value": "t_uint256"
      },
      "t_mapping(t_uint256,t_struct(Listing)226_storage)": {
        "encoding": "mapping",
        "key": "t_uint256",
        "label": "mapping(uint256 => struct NFTMarket.Listing)",
        "numberOfBytes": "32",
        "value": "t_struct(Listing)226_storage"
      },
      "t_struct(Listing)226_storage": {
        "encoding": "inplace",
        "label": "struct NFTMarket.Listing",
        "members": [
          {
            "astId": 223,
            "contract": "contracts/NFTMarket.sol:NFTMarket",
            "label": "seller",
            "offset": 0,
            "slot": "0",
            "type": "t_address"
          },
          {
            "astId": 225,
            "contract": "contracts/NFTMarket.sol:NFTMarket",
            "label": "price",
            "offset": 0,
            "slot": "1",
            "type": "t_uint256"
          }
        ],
        "numberOfBytes": "64"
      },
      "t_uint256": {
        "encoding": "inplace",
        "label": "uint256",
        "numberOfBytes": "32"
      }
    }
  }
}